{
    "contractName": "NFTFarm",
    "abi": [
        {
            "inputs": [],
            "stateMutability": "nonpayable",
            "type": "constructor"
        },
        {
            "anonymous": false,
            "inputs": [
                {
                    "indexed": true,
                    "internalType": "address",
                    "name": "owner",
                    "type": "address"
                },
                {
                    "indexed": true,
                    "internalType": "address",
                    "name": "approved",
                    "type": "address"
                },
                {
                    "indexed": true,
                    "internalType": "uint256",
                    "name": "tokenId",
                    "type": "uint256"
                }
            ],
            "name": "Approval",
            "type": "event"
        },
        {
            "anonymous": false,
            "inputs": [
                {
                    "indexed": true,
                    "internalType": "address",
                    "name": "owner",
                    "type": "address"
                },
                {
                    "indexed": true,
                    "internalType": "address",
                    "name": "operator",
                    "type": "address"
                },
                {
                    "indexed": false,
                    "internalType": "bool",
                    "name": "approved",
                    "type": "bool"
                }
            ],
            "name": "ApprovalForAll",
            "type": "event"
        },
        {
            "anonymous": false,
            "inputs": [
                {
                    "indexed": false,
                    "internalType": "uint256",
                    "name": "id",
                    "type": "uint256"
                },
                {
                    "indexed": false,
                    "internalType": "uint256",
                    "name": "power",
                    "type": "uint256"
                },
                {
                    "indexed": false,
                    "internalType": "uint256",
                    "name": "speed",
                    "type": "uint256"
                },
                {
                    "indexed": false,
                    "internalType": "uint256",
                    "name": "dna",
                    "type": "uint256"
                }
            ],
            "name": "NFTCreated",
            "type": "event"
        },
        {
            "anonymous": false,
            "inputs": [
                {
                    "indexed": false,
                    "internalType": "uint256",
                    "name": "newPrice",
                    "type": "uint256"
                }
            ],
            "name": "PriceChanged",
            "type": "event"
        },
        {
            "anonymous": false,
            "inputs": [
                {
                    "indexed": false,
                    "internalType": "address",
                    "name": "newOwner",
                    "type": "address"
                }
            ],
            "name": "TokenTransferred",
            "type": "event"
        },
        {
            "anonymous": false,
            "inputs": [
                {
                    "indexed": false,
                    "internalType": "string",
                    "name": "tokenURI",
                    "type": "string"
                }
            ],
            "name": "TokenURICreated",
            "type": "event"
        },
        {
            "anonymous": false,
            "inputs": [
                {
                    "indexed": true,
                    "internalType": "address",
                    "name": "from",
                    "type": "address"
                },
                {
                    "indexed": true,
                    "internalType": "address",
                    "name": "to",
                    "type": "address"
                },
                {
                    "indexed": true,
                    "internalType": "uint256",
                    "name": "tokenId",
                    "type": "uint256"
                }
            ],
            "name": "Transfer",
            "type": "event"
        },
        {
            "inputs": [
                {
                    "internalType": "address",
                    "name": "to",
                    "type": "address"
                },
                {
                    "internalType": "uint256",
                    "name": "tokenId",
                    "type": "uint256"
                }
            ],
            "name": "approve",
            "outputs": [],
            "stateMutability": "nonpayable",
            "type": "function"
        },
        {
            "inputs": [
                {
                    "internalType": "address",
                    "name": "owner",
                    "type": "address"
                }
            ],
            "name": "balanceOf",
            "outputs": [
                {
                    "internalType": "uint256",
                    "name": "",
                    "type": "uint256"
                }
            ],
            "stateMutability": "view",
            "type": "function"
        },
        {
            "inputs": [],
            "name": "baseURI",
            "outputs": [
                {
                    "internalType": "string",
                    "name": "",
                    "type": "string"
                }
            ],
            "stateMutability": "view",
            "type": "function"
        },
        {
            "inputs": [
                {
                    "internalType": "uint256",
                    "name": "userProvidedSeed",
                    "type": "uint256"
                }
            ],
            "name": "createRandomFighter",
            "outputs": [],
            "stateMutability": "payable",
            "type": "function"
        },
        {
            "inputs": [
                {
                    "internalType": "uint256",
                    "name": "tokenId",
                    "type": "uint256"
                }
            ],
            "name": "doesTokenExist",
            "outputs": [
                {
                    "internalType": "bool",
                    "name": "",
                    "type": "bool"
                }
            ],
            "stateMutability": "view",
            "type": "function"
        },
        {
            "inputs": [
                {
                    "internalType": "uint256",
                    "name": "tokenId",
                    "type": "uint256"
                }
            ],
            "name": "getApproved",
            "outputs": [
                {
                    "internalType": "address",
                    "name": "",
                    "type": "address"
                }
            ],
            "stateMutability": "view",
            "type": "function"
        },
        {
            "inputs": [
                {
                    "internalType": "uint256",
                    "name": "tokenId",
                    "type": "uint256"
                }
            ],
            "name": "getIsNFTOnSale",
            "outputs": [
                {
                    "internalType": "bool",
                    "name": "",
                    "type": "bool"
                }
            ],
            "stateMutability": "view",
            "type": "function"
        },
        {
            "inputs": [
                {
                    "internalType": "uint256",
                    "name": "tokenId",
                    "type": "uint256"
                }
            ],
            "name": "getNFTPrice",
            "outputs": [
                {
                    "internalType": "uint256",
                    "name": "",
                    "type": "uint256"
                }
            ],
            "stateMutability": "view",
            "type": "function"
        },
        {
            "inputs": [],
            "name": "getNumberOfNFTs",
            "outputs": [
                {
                    "internalType": "uint256",
                    "name": "",
                    "type": "uint256"
                }
            ],
            "stateMutability": "view",
            "type": "function"
        },
        {
            "inputs": [
                {
                    "internalType": "uint256",
                    "name": "tokenId",
                    "type": "uint256"
                }
            ],
            "name": "getURI",
            "outputs": [
                {
                    "internalType": "string",
                    "name": "",
                    "type": "string"
                },
                {
                    "internalType": "string",
                    "name": "",
                    "type": "string"
                }
            ],
            "stateMutability": "view",
            "type": "function"
        },
        {
            "inputs": [
                {
                    "internalType": "address",
                    "name": "owner",
                    "type": "address"
                },
                {
                    "internalType": "address",
                    "name": "operator",
                    "type": "address"
                }
            ],
            "name": "isApprovedForAll",
            "outputs": [
                {
                    "internalType": "bool",
                    "name": "",
                    "type": "bool"
                }
            ],
            "stateMutability": "view",
            "type": "function"
        },
        {
            "inputs": [],
            "name": "name",
            "outputs": [
                {
                    "internalType": "string",
                    "name": "",
                    "type": "string"
                }
            ],
            "stateMutability": "view",
            "type": "function"
        },
        {
            "inputs": [
                {
                    "internalType": "uint256",
                    "name": "tokenId",
                    "type": "uint256"
                }
            ],
            "name": "ownerOf",
            "outputs": [
                {
                    "internalType": "address",
                    "name": "",
                    "type": "address"
                }
            ],
            "stateMutability": "view",
            "type": "function"
        },
        {
            "inputs": [
                {
                    "internalType": "uint256",
                    "name": "tokenId",
                    "type": "uint256"
                }
            ],
            "name": "removeNFTPrice",
            "outputs": [],
            "stateMutability": "nonpayable",
            "type": "function"
        },
        {
            "inputs": [
                {
                    "internalType": "address",
                    "name": "from",
                    "type": "address"
                },
                {
                    "internalType": "address",
                    "name": "to",
                    "type": "address"
                },
                {
                    "internalType": "uint256",
                    "name": "tokenId",
                    "type": "uint256"
                }
            ],
            "name": "safeTransferFrom",
            "outputs": [],
            "stateMutability": "nonpayable",
            "type": "function"
        },
        {
            "inputs": [
                {
                    "internalType": "address",
                    "name": "from",
                    "type": "address"
                },
                {
                    "internalType": "address",
                    "name": "to",
                    "type": "address"
                },
                {
                    "internalType": "uint256",
                    "name": "tokenId",
                    "type": "uint256"
                },
                {
                    "internalType": "bytes",
                    "name": "_data",
                    "type": "bytes"
                }
            ],
            "name": "safeTransferFrom",
            "outputs": [],
            "stateMutability": "nonpayable",
            "type": "function"
        },
        {
            "inputs": [
                {
                    "internalType": "address",
                    "name": "operator",
                    "type": "address"
                },
                {
                    "internalType": "bool",
                    "name": "approved",
                    "type": "bool"
                }
            ],
            "name": "setApprovalForAll",
            "outputs": [],
            "stateMutability": "nonpayable",
            "type": "function"
        },
        {
            "inputs": [
                {
                    "internalType": "uint256",
                    "name": "tokenId",
                    "type": "uint256"
                },
                {
                    "internalType": "uint256",
                    "name": "tokenPrice",
                    "type": "uint256"
                }
            ],
            "name": "setNFTPrice",
            "outputs": [],
            "stateMutability": "nonpayable",
            "type": "function"
        },
        {
            "inputs": [
                {
                    "internalType": "uint256",
                    "name": "tokenId",
                    "type": "uint256"
                },
                {
                    "internalType": "string",
                    "name": "_tokenURI",
                    "type": "string"
                }
            ],
            "name": "setTokenURI",
            "outputs": [],
            "stateMutability": "nonpayable",
            "type": "function"
        },
        {
            "inputs": [
                {
                    "internalType": "bytes4",
                    "name": "interfaceId",
                    "type": "bytes4"
                }
            ],
            "name": "supportsInterface",
            "outputs": [
                {
                    "internalType": "bool",
                    "name": "",
                    "type": "bool"
                }
            ],
            "stateMutability": "view",
            "type": "function"
        },
        {
            "inputs": [],
            "name": "symbol",
            "outputs": [
                {
                    "internalType": "string",
                    "name": "",
                    "type": "string"
                }
            ],
            "stateMutability": "view",
            "type": "function"
        },
        {
            "inputs": [
                {
                    "internalType": "uint256",
                    "name": "index",
                    "type": "uint256"
                }
            ],
            "name": "tokenByIndex",
            "outputs": [
                {
                    "internalType": "uint256",
                    "name": "",
                    "type": "uint256"
                }
            ],
            "stateMutability": "view",
            "type": "function"
        },
        {
            "inputs": [
                {
                    "internalType": "address",
                    "name": "owner",
                    "type": "address"
                },
                {
                    "internalType": "uint256",
                    "name": "index",
                    "type": "uint256"
                }
            ],
            "name": "tokenOfOwnerByIndex",
            "outputs": [
                {
                    "internalType": "uint256",
                    "name": "",
                    "type": "uint256"
                }
            ],
            "stateMutability": "view",
            "type": "function"
        },
        {
            "inputs": [
                {
                    "internalType": "uint256",
                    "name": "",
                    "type": "uint256"
                }
            ],
            "name": "tokenSalePostedTime",
            "outputs": [
                {
                    "internalType": "uint32",
                    "name": "",
                    "type": "uint32"
                }
            ],
            "stateMutability": "view",
            "type": "function"
        },
        {
            "inputs": [
                {
                    "internalType": "uint256",
                    "name": "tokenId",
                    "type": "uint256"
                }
            ],
            "name": "tokenURI",
            "outputs": [
                {
                    "internalType": "string",
                    "name": "",
                    "type": "string"
                }
            ],
            "stateMutability": "view",
            "type": "function"
        },
        {
            "inputs": [
                {
                    "internalType": "uint256",
                    "name": "",
                    "type": "uint256"
                }
            ],
            "name": "tokens",
            "outputs": [
                {
                    "internalType": "bool",
                    "name": "onSale",
                    "type": "bool"
                },
                {
                    "internalType": "uint256",
                    "name": "price",
                    "type": "uint256"
                },
                {
                    "internalType": "uint256",
                    "name": "power",
                    "type": "uint256"
                },
                {
                    "internalType": "uint256",
                    "name": "speed",
                    "type": "uint256"
                },
                {
                    "internalType": "uint256",
                    "name": "dna",
                    "type": "uint256"
                }
            ],
            "stateMutability": "view",
            "type": "function"
        },
        {
            "inputs": [],
            "name": "totalSupply",
            "outputs": [
                {
                    "internalType": "uint256",
                    "name": "",
                    "type": "uint256"
                }
            ],
            "stateMutability": "view",
            "type": "function"
        },
        {
            "inputs": [
                {
                    "internalType": "address",
                    "name": "from",
                    "type": "address"
                },
                {
                    "internalType": "address",
                    "name": "to",
                    "type": "address"
                },
                {
                    "internalType": "uint256",
                    "name": "tokenId",
                    "type": "uint256"
                }
            ],
            "name": "transferFrom",
            "outputs": [],
            "stateMutability": "nonpayable",
            "type": "function"
        }
    ],
    "bytecode": "60806040523480156200001157600080fd5b50604080518082018252600b81526a11d95b995c9a58c813919560aa1b6020808301919091528251808401909352600383526213919560ea1b90830152906200006a6301ffc9a760e01b6001600160e01b036200014216565b81516200007f906006906020850190620001e0565b50805162000095906007906020840190620001e0565b50620000b16380ac58cd60e01b6001600160e01b036200014216565b620000cc635b5e139f60e01b6001600160e01b036200014216565b620000e763780e9d6360e01b6001600160e01b036200014216565b505060408051808201909152601581527f68747470733a2f2f697066732e696f2f697066732f0000000000000000000000602082015262000131906001600160e01b03620001c716565b66b1a2bc2ec50000600b5562000285565b6001600160e01b03198082161415620001a2576040805162461bcd60e51b815260206004820152601c60248201527f4552433136353a20696e76616c696420696e7465726661636520696400000000604482015290519081900360640190fd5b6001600160e01b0319166000908152602081905260409020805460ff19166001179055565b8051620001dc906009906020840190620001e0565b5050565b828054600181600116156101000203166002900490600052602060002090601f016020900481019282601f106200022357805160ff191683800117855562000253565b8280016001018555821562000253579182015b828111156200025357825182559160200191906001019062000236565b506200026192915062000265565b5090565b6200028291905b808211156200026157600081556001016200026c565b90565b61273380620002956000396000f3fe6080604052600436106101b75760003560e01c80635bbd2e84116100ec57806395d89b411161008a578063c3738f3f11610064578063c3738f3f1461088a578063c87b56dd146108b4578063e7406558146108de578063e985e9c51461090e576101b7565b806395d89b4114610767578063a22cb4651461077c578063b88d4fde146107b7576101b7565b80636ed89ef7116100c65780636ed89ef7146106b257806370a08231146106f557806380060ad214610728578063929761791461073d576101b7565b80635bbd2e84146106495780636352211e146106735780636c0360eb1461069d576101b7565b80631aa347dc116101595780632f745c59116101335780632f745c591461054c57806342842e0e146105855780634f64b2be146105c85780634f6ccce71461061f576101b7565b80631aa347dc146103e457806323b872dd146104ec578063245a21b01461052f576101b7565b8063095ea7b311610195578063095ea7b3146102d4578063162094c41461030f57806318160ddd146103935780631857951e146103ba576101b7565b806301ffc9a7146101bc57806306fdde0314610204578063081812fc1461028e575b600080fd5b3480156101c857600080fd5b506101f0600480360360208110156101df57600080fd5b50356001600160e01b031916610949565b604080519115158252519081900360200190f35b34801561021057600080fd5b5061021961096c565b6040805160208082528351818301528351919283929083019185019080838360005b8381101561025357818101518382015260200161023b565b50505050905090810190601f1680156102805780820380516001836020036101000a031916815260200191505b509250505060405180910390f35b34801561029a57600080fd5b506102b8600480360360208110156102b157600080fd5b5035610a03565b604080516001600160a01b039092168252519081900360200190f35b3480156102e057600080fd5b5061030d600480360360408110156102f757600080fd5b506001600160a01b038135169060200135610a65565b005b34801561031b57600080fd5b5061030d6004803603604081101561033257600080fd5b8135919081019060408101602082013564010000000081111561035457600080fd5b82018360208201111561036657600080fd5b8035906020019184600183028401116401000000008311171561038857600080fd5b509092509050610b40565b34801561039f57600080fd5b506103a8610c49565b60408051918252519081900360200190f35b3480156103c657600080fd5b5061030d600480360360208110156103dd57600080fd5b5035610c5a565b3480156103f057600080fd5b5061040e6004803603602081101561040757600080fd5b5035610ce7565b604051808060200180602001838103835285818151815260200191508051906020019080838360005b8381101561044f578181015183820152602001610437565b50505050905090810190601f16801561047c5780820380516001836020036101000a031916815260200191505b50838103825284518152845160209182019186019080838360005b838110156104af578181015183820152602001610497565b50505050905090810190601f1680156104dc5780820380516001836020036101000a031916815260200191505b5094505050505060405180910390f35b3480156104f857600080fd5b5061030d6004803603606081101561050f57600080fd5b506001600160a01b03813581169160208101359091169060400135610d04565b61030d6004803603602081101561054557600080fd5b5035610d5b565b34801561055857600080fd5b506103a86004803603604081101561056f57600080fd5b506001600160a01b038135169060200135610dce565b34801561059157600080fd5b5061030d600480360360608110156105a857600080fd5b506001600160a01b03813581169160208101359091169060400135610dff565b3480156105d457600080fd5b506105f2600480360360208110156105eb57600080fd5b5035610e1a565b60408051951515865260208601949094528484019290925260608401526080830152519081900360a00190f35b34801561062b57600080fd5b506103a86004803603602081101561064257600080fd5b5035610e5c565b34801561065557600080fd5b506101f06004803603602081101561066c57600080fd5b5035610e78565b34801561067f57600080fd5b506102b86004803603602081101561069657600080fd5b5035610ea1565b3480156106a957600080fd5b50610219610ecf565b3480156106be57600080fd5b506106dc600480360360208110156106d557600080fd5b5035610f30565b6040805163ffffffff9092168252519081900360200190f35b34801561070157600080fd5b506103a86004803603602081101561071857600080fd5b50356001600160a01b0316610f48565b34801561073457600080fd5b506103a8610fb0565b34801561074957600080fd5b506103a86004803603602081101561076057600080fd5b5035610fb6565b34801561077357600080fd5b50610219610fde565b34801561078857600080fd5b5061030d6004803603604081101561079f57600080fd5b506001600160a01b038135169060200135151561103f565b3480156107c357600080fd5b5061030d600480360360808110156107da57600080fd5b6001600160a01b0382358116926020810135909116916040820135919081019060808101606082013564010000000081111561081557600080fd5b82018360208201111561082757600080fd5b8035906020019184600183028401116401000000008311171561084957600080fd5b91908080601f016020809104026020016040519081016040528093929190818152602001838380828437600092019190915250929550611144945050505050565b34801561089657600080fd5b506101f0600480360360208110156108ad57600080fd5b50356111a2565b3480156108c057600080fd5b50610219600480360360208110156108d757600080fd5b50356111ad565b3480156108ea57600080fd5b5061030d6004803603604081101561090157600080fd5b5080359060200135611454565b34801561091a57600080fd5b506101f06004803603604081101561093157600080fd5b506001600160a01b038135811691602001351661155c565b6001600160e01b0319811660009081526020819052604090205460ff165b919050565b60068054604080516020601f60026000196101006001881615020190951694909404938401819004810282018101909252828152606093909290918301828280156109f85780601f106109cd576101008083540402835291602001916109f8565b820191906000526020600020905b8154815290600101906020018083116109db57829003601f168201915b505050505090505b90565b6000610a0e8261158a565b610a495760405162461bcd60e51b815260040180806020018281038252602c8152602001806125fc602c913960400191505060405180910390fd5b506000908152600460205260409020546001600160a01b031690565b6000610a7082610ea1565b9050806001600160a01b0316836001600160a01b03161415610ac35760405162461bcd60e51b81526004018080602001828103825260218152602001806126ac6021913960400191505060405180910390fd5b806001600160a01b0316610ad561159d565b6001600160a01b03161480610af65750610af681610af161159d565b61155c565b610b315760405162461bcd60e51b815260040180806020018281038252603881526020018061254f6038913960400191505060405180910390fd5b610b3b83836115a1565b505050565b610b4983610ea1565b6001600160a01b0316336001600160a01b031614610b6657600080fd5b610ba68383838080601f01602080910402602001604051908101604052809392919081815260200183838082843760009201919091525061160f92505050565b7f2631097869e84ce9aaf6ad8c98d76844ba1dd155d33d54ff5015b25e5a7d2509610bd0846111ad565b6040805160208082528351818301528351919283929083019185019080838360005b83811015610c0a578181015183820152602001610bf2565b50505050905090810190601f168015610c375780820380516001836020036101000a031916815260200191505b509250505060405180910390a1505050565b6000610c556002611672565b905090565b6000600a8281548110610c6957fe5b60009182526020822060059190910201805460ff191692151592909217909155600a805483908110610c9757fe5b9060005260206000209060050201600101819055507fa6dc15bdb68da224c66db4b3838d9a2b205138e8cff6774e57d0af91e196d62260006040518082815260200191505060405180910390a150565b606080610cf2610ecf565b610cfb846111ad565b91509150915091565b610d15610d0f61159d565b8261167d565b610d505760405162461bcd60e51b81526004018080602001828103825260318152602001806126cd6031913960400191505060405180910390fd5b610b3b838383611721565b600b543414610d6957600080fd5b600a5460408051336020808301919091528183018590526060808301859052835180840390910181526080909201909252805191012090610dca90605a8306600a0160646123288581610db857fe5b0681610dc057fe5b04600a018461187f565b5050565b6001600160a01b0382166000908152600160205260408120610df6908363ffffffff6119dd16565b90505b92915050565b610b3b83838360405180602001604052806000815250611144565b600a8181548110610e2757fe5b60009182526020909120600590910201805460018201546002830154600384015460049094015460ff90931694509092909185565b600080610e7060028463ffffffff6119e916565b509392505050565b6000600a8281548110610e8757fe5b600091825260209091206005909102015460ff1692915050565b6000610df9826040518060600160405280602981526020016125b1602991396002919063ffffffff611a0516565b60098054604080516020601f60026000196101006001881615020190951694909404938401819004810282018101909252828152606093909290918301828280156109f85780601f106109cd576101008083540402835291602001916109f8565b600c6020526000908152604090205463ffffffff1681565b60006001600160a01b038216610f8f5760405162461bcd60e51b815260040180806020018281038252602a815260200180612587602a913960400191505060405180910390fd5b6001600160a01b0382166000908152600160205260409020610df990611672565b600a5490565b6000600a8281548110610fc557fe5b9060005260206000209060050201600101549050919050565b60078054604080516020601f60026000196101006001881615020190951694909404938401819004810282018101909252828152606093909290918301828280156109f85780601f106109cd576101008083540402835291602001916109f8565b61104761159d565b6001600160a01b0316826001600160a01b031614156110ad576040805162461bcd60e51b815260206004820152601960248201527f4552433732313a20617070726f766520746f2063616c6c657200000000000000604482015290519081900360640190fd5b80600560006110ba61159d565b6001600160a01b03908116825260208083019390935260409182016000908120918716808252919093529120805460ff1916921515929092179091556110fe61159d565b60408051841515815290516001600160a01b0392909216917f17307eab39ab6107e8899845ad3d59bd9653f200f220920489ca2b5937696c319181900360200190a35050565b61115561114f61159d565b8361167d565b6111905760405162461bcd60e51b81526004018080602001828103825260318152602001806126cd6031913960400191505060405180910390fd5b61119c84848484611a1c565b50505050565b6000610df98261158a565b60606111b88261158a565b6111f35760405162461bcd60e51b815260040180806020018281038252602f81526020018061267d602f913960400191505060405180910390fd5b60008281526008602090815260409182902080548351601f60026000196101006001861615020190931692909204918201849004840281018401909452808452606093928301828280156112885780601f1061125d57610100808354040283529160200191611288565b820191906000526020600020905b81548152906001019060200180831161126b57829003601f168201915b5050600954939450505050600260001961010060018416150201909116046112b1579050610967565b8051156113825760098160405160200180838054600181600116156101000203166002900480156113195780601f106112f7576101008083540402835291820191611319565b820191906000526020600020905b815481529060010190602001808311611305575b5050825160208401908083835b602083106113455780518252601f199092019160209182019101611326565b6001836020036101000a03801982511681845116808217855250505050505090500192505050604051602081830303815290604052915050610967565b600961138d84611a6e565b60405160200180838054600181600116156101000203166002900480156113eb5780601f106113c95761010080835404028352918201916113eb565b820191906000526020600020905b8154815290600101906020018083116113d7575b5050825160208401908083835b602083106114175780518252601f1990920191602091820191016113f8565b6001836020036101000a03801982511681845116808217855250505050505090500192505050604051602081830303815290604052915050919050565b61145d82610ea1565b6001600160a01b0316336001600160a01b03161461147a57600080fd5b6000811161148757600080fd5b600a828154811061149457fe5b600091825260209091206005909102015460ff166114fe576001600a83815481106114bb57fe5b60009182526020808320600592909202909101805460ff191693151593909317909255838152600c90915260409020805463ffffffff19164263ffffffff161790555b80600a838154811061150c57fe5b9060005260206000209060050201600101819055507fa6dc15bdb68da224c66db4b3838d9a2b205138e8cff6774e57d0af91e196d622816040518082815260200191505060405180910390a15050565b6001600160a01b03918216600090815260056020908152604080832093909416825291909152205460ff1690565b6000610df960028363ffffffff611b4916565b3390565b600081815260046020526040902080546001600160a01b0319166001600160a01b03841690811790915581906115d682610ea1565b6001600160a01b03167f8c5be1e5ebec7d5bd14f71427d1e84f3dd0314c0f7b2291e5b200ac8c7c3b92560405160405180910390a45050565b6116188261158a565b6116535760405162461bcd60e51b815260040180806020018281038252602c815260200180612628602c913960400191505060405180910390fd5b60008281526008602090815260409091208251610b3b928401906123ec565b6000610df982611b55565b60006116888261158a565b6116c35760405162461bcd60e51b815260040180806020018281038252602c815260200180612523602c913960400191505060405180910390fd5b60006116ce83610ea1565b9050806001600160a01b0316846001600160a01b031614806117095750836001600160a01b03166116fe84610a03565b6001600160a01b0316145b806117195750611719818561155c565b949350505050565b826001600160a01b031661173482610ea1565b6001600160a01b0316146117795760405162461bcd60e51b81526004018080602001828103825260298152602001806126546029913960400191505060405180910390fd5b6001600160a01b0382166117be5760405162461bcd60e51b81526004018080602001828103825260248152602001806124d96024913960400191505060405180910390fd5b6117c9838383610b3b565b6117d46000826115a1565b6001600160a01b03831660009081526001602052604090206117fc908263ffffffff611b5916565b506001600160a01b0382166000908152600160205260409020611825908263ffffffff611b6516565b506118386002828463ffffffff611b7116565b5080826001600160a01b0316846001600160a01b03167fddf252ad1be2c89b69c2b068fc378daa952ba7f163c4a11628f55a4df523b3ef60405160405180910390a4505050565b6040805160a0810182526000808252602082018181529282018681526060830186815260808401868152600a8054600181018255945293517fc65a7bb8d6351c1cf70c95a316cc6a92839c986682d98bc35f958f4883f9d2a86005909402938401805460ff191691151591909117905593517fc65a7bb8d6351c1cf70c95a316cc6a92839c986682d98bc35f958f4883f9d2a9830155517fc65a7bb8d6351c1cf70c95a316cc6a92839c986682d98bc35f958f4883f9d2aa82015591517fc65a7bb8d6351c1cf70c95a316cc6a92839c986682d98bc35f958f4883f9d2ab830155517fc65a7bb8d6351c1cf70c95a316cc6a92839c986682d98bc35f958f4883f9d2ac909101556119903385611b87565b60408051858152602081018590528082018490526060810183905290517fcc135547b73f633ee18b53b6a42f0d78bc79ec80214270842ff1fd57045503389181900360800190a150505050565b6000610df68383611ba1565b60008080806119f88686611c05565b9097909650945050505050565b6000611a12848484611c80565b90505b9392505050565b611a27848484611721565b611a3384848484611d4a565b61119c5760405162461bcd60e51b81526004018080602001828103825260328152602001806124a76032913960400191505060405180910390fd5b606081611a9357506040805180820190915260018152600360fc1b6020820152610967565b8160005b8115611aab57600101600a82049150611a97565b60608167ffffffffffffffff81118015611ac457600080fd5b506040519080825280601f01601f191660200182016040528015611aef576020820181803683370190505b50859350905060001982015b8315611b4057600a840660300160f81b82828060019003935081518110611b1e57fe5b60200101906001600160f81b031916908160001a905350600a84049350611afb565b50949350505050565b6000610df68383611eca565b5490565b6000610df68383611ee2565b6000610df68383611fa8565b6000611a1284846001600160a01b038516611ff2565b610dca828260405180602001604052806000815250612089565b81546000908210611be35760405162461bcd60e51b81526004018080602001828103825260228152602001806124856022913960400191505060405180910390fd5b826000018281548110611bf257fe5b9060005260206000200154905092915050565b815460009081908310611c495760405162461bcd60e51b81526004018080602001828103825260228152602001806125da6022913960400191505060405180910390fd5b6000846000018481548110611c5a57fe5b906000526020600020906002020190508060000154816001015492509250509250929050565b60008281526001840160205260408120548281611d1b5760405162461bcd60e51b81526004018080602001828103825283818151815260200191508051906020019080838360005b83811015611ce0578181015183820152602001611cc8565b50505050905090810190601f168015611d0d5780820380516001836020036101000a031916815260200191505b509250505060405180910390fd5b50846000016001820381548110611d2e57fe5b9060005260206000209060020201600101549150509392505050565b6000611d5e846001600160a01b03166120db565b611d6a57506001611719565b6060611e90630a85bd0160e11b611d7f61159d565b88878760405160240180856001600160a01b03166001600160a01b03168152602001846001600160a01b03166001600160a01b0316815260200183815260200180602001828103825283818151815260200191508051906020019080838360005b83811015611df8578181015183820152602001611de0565b50505050905090810190601f168015611e255780820380516001836020036101000a031916815260200191505b5095505050505050604051602081830303815290604052906001600160e01b0319166020820180516001600160e01b0383818316178352505050506040518060600160405280603281526020016124a7603291396001600160a01b038816919063ffffffff6120e116565b90506000818060200190516020811015611ea957600080fd5b50516001600160e01b031916630a85bd0160e11b1492505050949350505050565b60009081526001919091016020526040902054151590565b60008181526001830160205260408120548015611f9e5783546000198083019190810190600090879083908110611f1557fe5b9060005260206000200154905080876000018481548110611f3257fe5b600091825260208083209091019290925582815260018981019092526040902090840190558654879080611f6257fe5b60019003818190600052602060002001600090559055866001016000878152602001908152602001600020600090556001945050505050610df9565b6000915050610df9565b6000611fb48383611eca565b611fea57508154600181810184556000848152602080822090930184905584548482528286019093526040902091909155610df9565b506000610df9565b600082815260018401602052604081205480612057575050604080518082018252838152602080820184815286546001818101895560008981528481209551600290930290950191825591519082015586548684528188019092529290912055611a15565b8285600001600183038154811061206a57fe5b9060005260206000209060020201600101819055506000915050611a15565b61209383836120f0565b6120a06000848484611d4a565b610b3b5760405162461bcd60e51b81526004018080602001828103825260328152602001806124a76032913960400191505060405180910390fd5b3b151590565b6060611a12848460008561222a565b6001600160a01b03821661214b576040805162461bcd60e51b815260206004820181905260248201527f4552433732313a206d696e7420746f20746865207a65726f2061646472657373604482015290519081900360640190fd5b6121548161158a565b156121a6576040805162461bcd60e51b815260206004820152601c60248201527f4552433732313a20746f6b656e20616c7265616479206d696e74656400000000604482015290519081900360640190fd5b6121b260008383610b3b565b6001600160a01b03821660009081526001602052604090206121da908263ffffffff611b6516565b506121ed6002828463ffffffff611b7116565b5060405181906001600160a01b038416906000907fddf252ad1be2c89b69c2b068fc378daa952ba7f163c4a11628f55a4df523b3ef908290a45050565b60608247101561226b5760405162461bcd60e51b81526004018080602001828103825260268152602001806124fd6026913960400191505060405180910390fd5b612274856120db565b6122c5576040805162461bcd60e51b815260206004820152601d60248201527f416464726573733a2063616c6c20746f206e6f6e2d636f6e7472616374000000604482015290519081900360640190fd5b60006060866001600160a01b031685876040518082805190602001908083835b602083106123045780518252601f1990920191602091820191016122e5565b6001836020036101000a03801982511681845116808217855250505050505090500191505060006040518083038185875af1925050503d8060008114612366576040519150601f19603f3d011682016040523d82523d6000602084013e61236b565b606091505b509150915061237b828286612386565b979650505050505050565b60608315612395575081611a15565b8251156123a55782518084602001fd5b60405162461bcd60e51b8152602060048201818152845160248401528451859391928392604401919085019080838360008315611ce0578181015183820152602001611cc8565b828054600181600116156101000203166002900490600052602060002090601f016020900481019282601f1061242d57805160ff191683800117855561245a565b8280016001018555821561245a579182015b8281111561245a57825182559160200191906001019061243f565b5061246692915061246a565b5090565b610a0091905b80821115612466576000815560010161247056fe456e756d657261626c655365743a20696e646578206f7574206f6620626f756e64734552433732313a207472616e7366657220746f206e6f6e20455243373231526563656976657220696d706c656d656e7465724552433732313a207472616e7366657220746f20746865207a65726f2061646472657373416464726573733a20696e73756666696369656e742062616c616e636520666f722063616c6c4552433732313a206f70657261746f7220717565727920666f72206e6f6e6578697374656e7420746f6b656e4552433732313a20617070726f76652063616c6c6572206973206e6f74206f776e6572206e6f7220617070726f76656420666f7220616c6c4552433732313a2062616c616e636520717565727920666f7220746865207a65726f20616464726573734552433732313a206f776e657220717565727920666f72206e6f6e6578697374656e7420746f6b656e456e756d657261626c654d61703a20696e646578206f7574206f6620626f756e64734552433732313a20617070726f76656420717565727920666f72206e6f6e6578697374656e7420746f6b656e4552433732314d657461646174613a2055524920736574206f66206e6f6e6578697374656e7420746f6b656e4552433732313a207472616e73666572206f6620746f6b656e2074686174206973206e6f74206f776e4552433732314d657461646174613a2055524920717565727920666f72206e6f6e6578697374656e7420746f6b656e4552433732313a20617070726f76616c20746f2063757272656e74206f776e65724552433732313a207472616e736665722063616c6c6572206973206e6f74206f776e6572206e6f7220617070726f766564a2646970667358221220b94ff290eb1690ab70c7cc81e4b6dcc89fae5b0c91cdc58c4bbbfa6f4d7d213964736f6c63430006060033",
    "sourcePath": "/Users/jamesmcarthur/Documents/GitHub/Frontend-Challenge/NFTFarm.sol",
    "compiler": {
        "name": "solc",
        "version": "0.6.6+commit.6c089d02"
    },
    "functionHashes": {
        "approve(address,uint256)": "095ea7b3",
        "balanceOf(address)": "70a08231",
        "baseURI()": "6c0360eb",
        "createRandomFighter(uint256)": "245a21b0",
        "doesTokenExist(uint256)": "c3738f3f",
        "getApproved(uint256)": "081812fc",
        "getIsNFTOnSale(uint256)": "5bbd2e84",
        "getNFTPrice(uint256)": "92976179",
        "getNumberOfNFTs()": "80060ad2",
        "getURI(uint256)": "1aa347dc",
        "isApprovedForAll(address,address)": "e985e9c5",
        "name()": "06fdde03",
        "ownerOf(uint256)": "6352211e",
        "removeNFTPrice(uint256)": "1857951e",
        "safeTransferFrom(address,address,uint256)": "42842e0e",
        "safeTransferFrom(address,address,uint256,bytes)": "b88d4fde",
        "setApprovalForAll(address,bool)": "a22cb465",
        "setNFTPrice(uint256,uint256)": "e7406558",
        "setTokenURI(uint256,string)": "162094c4",
        "supportsInterface(bytes4)": "01ffc9a7",
        "symbol()": "95d89b41",
        "tokenByIndex(uint256)": "4f6ccce7",
        "tokenOfOwnerByIndex(address,uint256)": "2f745c59",
        "tokenSalePostedTime(uint256)": "6ed89ef7",
        "tokenURI(uint256)": "c87b56dd",
        "tokens(uint256)": "4f64b2be",
        "totalSupply()": "18160ddd",
        "transferFrom(address,address,uint256)": "23b872dd"
    },
    "gasEstimates": {
        "creation": {
            "codeDepositCost": "2007000",
            "executionCost": "infinite",
            "totalCost": "infinite"
        },
        "external": {
            "approve(address,uint256)": "infinite",
            "balanceOf(address)": "infinite",
            "baseURI()": "infinite",
            "createRandomFighter(uint256)": "infinite",
            "doesTokenExist(uint256)": "infinite",
            "getApproved(uint256)": "infinite",
            "getIsNFTOnSale(uint256)": "2008",
            "getNFTPrice(uint256)": "2061",
            "getNumberOfNFTs()": "1087",
            "getURI(uint256)": "infinite",
            "isApprovedForAll(address,address)": "1372",
            "name()": "infinite",
            "ownerOf(uint256)": "infinite",
            "removeNFTPrice(uint256)": "29023",
            "safeTransferFrom(address,address,uint256)": "infinite",
            "safeTransferFrom(address,address,uint256,bytes)": "infinite",
            "setApprovalForAll(address,bool)": "infinite",
            "setNFTPrice(uint256,uint256)": "infinite",
            "setTokenURI(uint256,string)": "infinite",
            "supportsInterface(bytes4)": "1219",
            "symbol()": "infinite",
            "tokenByIndex(uint256)": "infinite",
            "tokenOfOwnerByIndex(address,uint256)": "infinite",
            "tokenSalePostedTime(uint256)": "1166",
            "tokenURI(uint256)": "infinite",
            "tokens(uint256)": "5384",
            "totalSupply()": "1163",
            "transferFrom(address,address,uint256)": "infinite"
        },
        "internal": {
            "createGenericNFT(uint256,uint256,uint256,uint256)": "infinite"
        }
    }
}